{
  "abi": [
    {
      "inputs": [
        {
          "internalType": "address[]",
          "name": "tokenAddress",
          "type": "address[]"
        },
        {
          "internalType": "address[]",
          "name": "pricefeedAddress",
          "type": "address[]"
        },
        {
          "internalType": "address",
          "name": "_DSC",
          "type": "address"
        }
      ],
      "stateMutability": "nonpayable",
      "type": "constructor"
    },
    {
      "inputs": [
        {
          "internalType": "uint256",
          "name": "healthFactorValue",
          "type": "uint256"
        }
      ],
      "name": "DSCEngine__BreaksHealthFactor",
      "type": "error"
    },
    {
      "inputs": [],
      "name": "DSCEngine__HealthFactorNotImproved",
      "type": "error"
    },
    {
      "inputs": [],
      "name": "DSCEngine__HealthFactorOk",
      "type": "error"
    },
    {
      "inputs": [],
      "name": "DSCEngine__MintFailed",
      "type": "error"
    },
    {
      "inputs": [],
      "name": "DSCEngine__NeedsMoreThanZero",
      "type": "error"
    },
    {
      "inputs": [],
      "name": "DSCEngine__TokenAddressesAndPriceFeedAddressesAmountsDontMatch",
      "type": "error"
    },
    {
      "inputs": [
        {
          "internalType": "address",
          "name": "token",
          "type": "address"
        }
      ],
      "name": "DSCEngine__TokenNotAllowed",
      "type": "error"
    },
    {
      "inputs": [],
      "name": "DSCEngine__TransferFailed",
      "type": "error"
    },
    {
      "inputs": [
        {
          "internalType": "address",
          "name": "user",
          "type": "address"
        }
      ],
      "name": "DSCmintedbyUSER",
      "outputs": [
        {
          "internalType": "uint256",
          "name": "",
          "type": "uint256"
        }
      ],
      "stateMutability": "view",
      "type": "function"
    },
    {
      "inputs": [
        {
          "internalType": "uint256",
          "name": "DSCamount",
          "type": "uint256"
        }
      ],
      "name": "burnDSC",
      "outputs": [],
      "stateMutability": "nonpayable",
      "type": "function"
    },
    {
      "inputs": [
        {
          "internalType": "address",
          "name": "_tokenCollateralAddress",
          "type": "address"
        },
        {
          "internalType": "uint256",
          "name": "_collateralAmount",
          "type": "uint256"
        }
      ],
      "name": "depositCollateral",
      "outputs": [],
      "stateMutability": "nonpayable",
      "type": "function"
    },
    {
      "inputs": [
        {
          "internalType": "address",
          "name": "_tokenCollateralAddress",
          "type": "address"
        },
        {
          "internalType": "uint256",
          "name": "_collateralAmount",
          "type": "uint256"
        },
        {
          "internalType": "uint256",
          "name": "DSCamount",
          "type": "uint256"
        }
      ],
      "name": "depositCollateralandmintDSC",
      "outputs": [],
      "stateMutability": "nonpayable",
      "type": "function"
    },
    {
      "inputs": [
        {
          "internalType": "address",
          "name": "user",
          "type": "address"
        }
      ],
      "name": "getAccountInfo",
      "outputs": [
        {
          "internalType": "uint256",
          "name": "",
          "type": "uint256"
        },
        {
          "internalType": "uint256",
          "name": "",
          "type": "uint256"
        }
      ],
      "stateMutability": "view",
      "type": "function"
    },
    {
      "inputs": [
        {
          "internalType": "address",
          "name": "user",
          "type": "address"
        }
      ],
      "name": "getCollateralValue",
      "outputs": [
        {
          "internalType": "uint256",
          "name": "",
          "type": "uint256"
        }
      ],
      "stateMutability": "view",
      "type": "function"
    },
    {
      "inputs": [
        {
          "internalType": "address",
          "name": "collateralToken",
          "type": "address"
        },
        {
          "internalType": "uint256",
          "name": "usdAmount",
          "type": "uint256"
        }
      ],
      "name": "getTokenAmountfromUSD",
      "outputs": [
        {
          "internalType": "uint256",
          "name": "",
          "type": "uint256"
        }
      ],
      "stateMutability": "view",
      "type": "function"
    },
    {
      "inputs": [
        {
          "internalType": "address",
          "name": "token",
          "type": "address"
        },
        {
          "internalType": "uint256",
          "name": "amount",
          "type": "uint256"
        }
      ],
      "name": "getUSDvalue",
      "outputs": [
        {
          "internalType": "uint256",
          "name": "",
          "type": "uint256"
        }
      ],
      "stateMutability": "view",
      "type": "function"
    },
    {
      "inputs": [],
      "name": "get_Additional_Price_Precession",
      "outputs": [
        {
          "internalType": "uint256",
          "name": "",
          "type": "uint256"
        }
      ],
      "stateMutability": "pure",
      "type": "function"
    },
    {
      "inputs": [],
      "name": "get_divide_precession",
      "outputs": [
        {
          "internalType": "uint256",
          "name": "",
          "type": "uint256"
        }
      ],
      "stateMutability": "pure",
      "type": "function"
    },
    {
      "inputs": [],
      "name": "healthFactor",
      "outputs": [],
      "stateMutability": "nonpayable",
      "type": "function"
    },
    {
      "inputs": [
        {
          "internalType": "address",
          "name": "collateralToken",
          "type": "address"
        },
        {
          "internalType": "address",
          "name": "user",
          "type": "address"
        },
        {
          "internalType": "uint256",
          "name": "debtToCover",
          "type": "uint256"
        }
      ],
      "name": "liquidate",
      "outputs": [],
      "stateMutability": "nonpayable",
      "type": "function"
    },
    {
      "inputs": [
        {
          "internalType": "uint256",
          "name": "DSCamount",
          "type": "uint256"
        }
      ],
      "name": "mint",
      "outputs": [],
      "stateMutability": "nonpayable",
      "type": "function"
    },
    {
      "inputs": [
        {
          "internalType": "address",
          "name": "tokenCollateralAddress",
          "type": "address"
        },
        {
          "internalType": "uint256",
          "name": "collateralAmount",
          "type": "uint256"
        }
      ],
      "name": "redeem",
      "outputs": [],
      "stateMutability": "nonpayable",
      "type": "function"
    },
    {
      "inputs": [
        {
          "internalType": "address",
          "name": "tokenCollateralAddress",
          "type": "address"
        },
        {
          "internalType": "uint256",
          "name": "collateralAmount",
          "type": "uint256"
        },
        {
          "internalType": "uint256",
          "name": "DSCamount",
          "type": "uint256"
        }
      ],
      "name": "redeemCollateralForDSC",
      "outputs": [],
      "stateMutability": "nonpayable",
      "type": "function"
    }
  ],
  "bytecode": {
    "object": "0x60a06040523480156200001157600080fd5b506040516200102938038062001029833981016040819052620000349162000242565b81518351146200005757604051631d8bb3e760e11b815260040160405180910390fd5b60005b83518110156200014c57828181518110620000795762000079620002be565b6020026020010151600080868481518110620000995762000099620002be565b60200260200101516001600160a01b03166001600160a01b0316815260200190815260200160002060006101000a8154816001600160a01b0302191690836001600160a01b031602179055506003848281518110620000fc57620000fc620002be565b60209081029190910181015182546001810184556000938452919092200180546001600160a01b0319166001600160a01b03909216919091179055806200014381620002d4565b9150506200005a565b506001600160a01b031660805250620002fc9050565b634e487b7160e01b600052604160045260246000fd5b80516001600160a01b03811681146200019057600080fd5b919050565b600082601f830112620001a757600080fd5b815160206001600160401b0380831115620001c657620001c662000162565b8260051b604051601f19603f83011681018181108482111715620001ee57620001ee62000162565b6040529384528581018301938381019250878511156200020d57600080fd5b83870191505b848210156200023757620002278262000178565b8352918301919083019062000213565b979650505050505050565b6000806000606084860312156200025857600080fd5b83516001600160401b03808211156200027057600080fd5b6200027e8783880162000195565b945060208601519150808211156200029557600080fd5b50620002a48682870162000195565b925050620002b56040850162000178565b90509250925092565b634e487b7160e01b600052603260045260246000fd5b600060018201620002f557634e487b7160e01b600052601160045260246000fd5b5060010190565b608051610d03620003266000396000818161051a0152818161096d0152610a120152610d036000f3fe608060405234801561001057600080fd5b50600436106100f55760003560e01c80637b510fe811610097578063a5d0a48311610066578063a5d0a483146101d5578063a5d5db0c146101e8578063d6f8f813146101fb578063fcfff82e1461022457600080fd5b80637b510fe81461017957806397904e42146101a1578063a0712d68146101b4578063a0c4b06c146101c757600080fd5b806322841f01116100d357806322841f011461010d578063264158e71461014857806326c01303146101535780634c1697b11461016657600080fd5b80630ebf956d146100fa5780631dfa07c81461010f5780631e9a695014610135575b600080fd5b61010d610108366004610ac9565b610237565b005b61012261011d366004610afc565b610258565b6040519081526020015b60405180910390f35b61010d610143366004610afc565b610316565b6402540be400610122565b61010d610161366004610b26565b610344565b61010d610174366004610b62565b6103d2565b61018c610187366004610b7b565b61040c565b6040805192835260208301919091520161012c565b6101226101af366004610b7b565b610421565b61010d6101c2366004610b62565b6104ab565b670de0b6b3a7640000610122565b6101226101e3366004610afc565b6105af565b61010d6101f6366004610afc565b610670565b610122610209366004610b7b565b6001600160a01b031660009081526002602052604090205490565b61010d610232366004610ac9565b6107b5565b6102418383610316565b61024a816103d2565b610253336107c8565b505050565b6001600160a01b03808316600090815260208190526040808220548151633fabe5a360e21b81529151929316918391839163feaf968c9160048082019260a0929091908290030181865afa1580156102b4573d6000803e3d6000fd5b505050506040513d601f19601f820116820180604052508101906102d89190610bb7565b5050509150506402540be400816102ef9190610c1d565b610301670de0b6b3a764000086610c1d565b61030b9190610c34565b925050505b92915050565b80806000036103385760405163cb1d3f7d60e01b815260040160405180910390fd5b610253838333336107fa565b600061034f836108d6565b9050600181116103725760405163032c072f60e41b815260040160405180910390fd5b600061037e8584610258565b90506000606461038f600a84610c1d565b6103999190610c34565b905060006103a78284610c56565b90506103b5878288336107fa565b6103c0858733610911565b6103c9336107c8565b50505050505050565b80806000036103f45760405163cb1d3f7d60e01b815260040160405180910390fd5b6103fd336107c8565b610408823333610911565b5050565b60008061041883610a7c565b91509150915091565b600080805b6003548110156104a45760006003828154811061044557610445610c69565b60009182526020808320909101546001600160a01b0388811684526001835260408085209190921680855292529091205490915061048382826105af565b61048d9085610c56565b93505050808061049c90610c7f565b915050610426565b5092915050565b80806000036104cd5760405163cb1d3f7d60e01b815260040160405180910390fd5b33600090815260026020526040812080548492906104ec908490610c56565b909155506104fb9050336107c8565b6040516340c10f1960e01b8152336004820152602481018390526000907f00000000000000000000000000000000000000000000000000000000000000006001600160a01b0316906340c10f19906044016020604051808303816000875af115801561056b573d6000803e3d6000fd5b505050506040513d601f19601f8201168201806040525081019061058f9190610c98565b905080610253576040516330eb0fc960e01b815260040160405180910390fd5b6001600160a01b03808316600090815260208190526040808220548151633fabe5a360e21b81529151929316918391839163feaf968c9160048082019260a0929091908290030181865afa15801561060b573d6000803e3d6000fd5b505050506040513d601f19601f8201168201806040525081019061062f9190610bb7565b5050509150506000670de0b6b3a7640000856402540be400846106529190610c1d565b61065c9190610c1d565b6106669190610c34565b9695505050505050565b80806000036106925760405163cb1d3f7d60e01b815260040160405180910390fd5b6001600160a01b038084166000908152602081905260409020548491166106dc5760405163cf39359560e01b81526001600160a01b03821660048201526024015b60405180910390fd5b3360009081526001602090815260408083206001600160a01b03881684529091528120805485929061070f908490610c56565b90915550506040516323b872dd60e01b8152336004820152306024820152604481018490526000906001600160a01b038616906323b872dd906064016020604051808303816000875af115801561076a573d6000803e3d6000fd5b505050506040513d601f19601f8201168201806040525081019061078e9190610c98565b9050806107ae57604051634dc34d1760e01b815260040160405180910390fd5b5050505050565b6107bf8383610670565b610253816104ab565b60006107d3826108d6565b905060018110156104085760405163e580cc6160e01b8152600481018290526024016106d3565b6001600160a01b03808316600090815260016020908152604080832093881683529290529081208054859290610831908490610cba565b909155505060405163a9059cbb60e01b81526001600160a01b038281166004830152602482018590526000919086169063a9059cbb906044016020604051808303816000875af1158015610889573d6000803e3d6000fd5b505050506040513d601f19601f820116820180604052508101906108ad9190610c98565b9050806108cd57604051634dc34d1760e01b815260040160405180910390fd5b6107ae336107c8565b60008060006108e484610a7c565b90925090506108f4826064610c1d565b6108ff603283610c1d565b6109099190610c34565b949350505050565b6001600160a01b03821660009081526002602052604081208054859290610939908490610cba565b90915550506040516323b872dd60e01b81526001600160a01b038281166004830152306024830152604482018590526000917f0000000000000000000000000000000000000000000000000000000000000000909116906323b872dd906064016020604051808303816000875af11580156109b8573d6000803e3d6000fd5b505050506040513d601f19601f820116820180604052508101906109dc9190610c98565b9050806109fc57604051634dc34d1760e01b815260040160405180910390fd5b604051630852cd8d60e31b8152600481018590527f00000000000000000000000000000000000000000000000000000000000000006001600160a01b0316906342966c6890602401600060405180830381600087803b158015610a5e57600080fd5b505af1158015610a72573d6000803e3d6000fd5b5050505050505050565b6001600160a01b038116600090815260026020526040812054819081610aa185610421565b91959194509092505050565b80356001600160a01b0381168114610ac457600080fd5b919050565b600080600060608486031215610ade57600080fd5b610ae784610aad565b95602085013595506040909401359392505050565b60008060408385031215610b0f57600080fd5b610b1883610aad565b946020939093013593505050565b600080600060608486031215610b3b57600080fd5b610b4484610aad565b9250610b5260208501610aad565b9150604084013590509250925092565b600060208284031215610b7457600080fd5b5035919050565b600060208284031215610b8d57600080fd5b610b9682610aad565b9392505050565b805169ffffffffffffffffffff81168114610ac457600080fd5b600080600080600060a08688031215610bcf57600080fd5b610bd886610b9d565b9450602086015193506040860151925060608601519150610bfb60808701610b9d565b90509295509295909350565b634e487b7160e01b600052601160045260246000fd5b808202811582820484141761031057610310610c07565b600082610c5157634e487b7160e01b600052601260045260246000fd5b500490565b8082018082111561031057610310610c07565b634e487b7160e01b600052603260045260246000fd5b600060018201610c9157610c91610c07565b5060010190565b600060208284031215610caa57600080fd5b81518015158114610b9657600080fd5b8181038181111561031057610310610c0756fea264697066735822122018b32bd023bf30fe08a830b12208cf43bc1284dff82499789ef09516a216793364736f6c63430008130033",
    "linkReferences": {}
  },
  "methodIdentifiers": {
    "DSCmintedbyUSER(address)": "d6f8f813",
    "burnDSC(uint256)": "4c1697b1",
    "depositCollateral(address,uint256)": "a5d5db0c",
    "depositCollateralandmintDSC(address,uint256,uint256)": "fcfff82e",
    "getAccountInfo(address)": "7b510fe8",
    "getCollateralValue(address)": "97904e42",
    "getTokenAmountfromUSD(address,uint256)": "1dfa07c8",
    "getUSDvalue(address,uint256)": "a5d0a483",
    "get_Additional_Price_Precession()": "264158e7",
    "get_divide_precession()": "a0c4b06c",
    "healthFactor()": "22841f01",
    "liquidate(address,address,uint256)": "26c01303",
    "mint(uint256)": "a0712d68",
    "redeem(address,uint256)": "1e9a6950",
    "redeemCollateralForDSC(address,uint256,uint256)": "0ebf956d"
  },
  "id": 31
}